{
  "contractName": "Invoice",
  "abi": [
    {
      "inputs": [
        {
          "name": "_number",
          "type": "uint256"
        },
        {
          "name": "_issueDate",
          "type": "uint256"
        },
        {
          "name": "_to",
          "type": "address"
        },
        {
          "name": "_from",
          "type": "address"
        },
        {
          "name": "_dueDate",
          "type": "uint256"
        },
        {
          "name": "_ref",
          "type": "bytes32"
        },
        {
          "name": "_lines",
          "type": "bytes32[]"
        },
        {
          "name": "_subTotal",
          "type": "uint256"
        },
        {
          "name": "_GST",
          "type": "uint256"
        },
        {
          "name": "_grandTotal",
          "type": "uint256"
        }
      ],
      "payable": false,
      "stateMutability": "nonpayable",
      "type": "constructor"
    },
    {
      "anonymous": false,
      "inputs": [
        {
          "indexed": false,
          "name": "invoiceAddress",
          "type": "address"
        },
        {
          "indexed": false,
          "name": "invoiceNumber",
          "type": "uint256"
        },
        {
          "indexed": false,
          "name": "to",
          "type": "address"
        },
        {
          "indexed": false,
          "name": "from",
          "type": "address"
        }
      ],
      "name": "logNewInvoice",
      "type": "event"
    },
    {
      "anonymous": false,
      "inputs": [
        {
          "indexed": false,
          "name": "signedBy",
          "type": "address"
        },
        {
          "indexed": false,
          "name": "signature",
          "type": "bytes"
        }
      ],
      "name": "logInvoiceSigned",
      "type": "event"
    },
    {
      "anonymous": false,
      "inputs": [
        {
          "indexed": false,
          "name": "paidBy",
          "type": "address"
        },
        {
          "indexed": false,
          "name": "paymentAmount",
          "type": "uint256"
        }
      ],
      "name": "logInvoicePayment",
      "type": "event"
    },
    {
      "anonymous": false,
      "inputs": [
        {
          "indexed": false,
          "name": "supplier",
          "type": "address"
        },
        {
          "indexed": false,
          "name": "transferAmount",
          "type": "uint256"
        },
        {
          "indexed": false,
          "name": "newContractBalance",
          "type": "uint256"
        }
      ],
      "name": "logBalanceTransfer",
      "type": "event"
    },
    {
      "constant": true,
      "inputs": [],
      "name": "getInvoiceDetails",
      "outputs": [
        {
          "name": "_number",
          "type": "uint256"
        },
        {
          "name": "_issueDate",
          "type": "uint256"
        },
        {
          "name": "_to",
          "type": "address"
        },
        {
          "name": "_from",
          "type": "address"
        },
        {
          "name": "_dueDate",
          "type": "uint256"
        },
        {
          "name": "_ref",
          "type": "bytes32"
        },
        {
          "name": "_lines",
          "type": "bytes32[]"
        },
        {
          "name": "_subTotal",
          "type": "uint256"
        },
        {
          "name": "_GST",
          "type": "uint256"
        },
        {
          "name": "_grandTotal",
          "type": "uint256"
        },
        {
          "name": "_amountPaid",
          "type": "uint256"
        },
        {
          "name": "_custSig",
          "type": "bytes"
        },
        {
          "name": "_state",
          "type": "uint8"
        }
      ],
      "payable": false,
      "stateMutability": "view",
      "type": "function"
    },
    {
      "constant": false,
      "inputs": [
        {
          "name": "_amountPaid",
          "type": "uint256"
        }
      ],
      "name": "payInvoice",
      "outputs": [
        {
          "name": "success",
          "type": "bool"
        }
      ],
      "payable": true,
      "stateMutability": "payable",
      "type": "function"
    },
    {
      "constant": false,
      "inputs": [],
      "name": "transferInvoiceBalanceToOwner",
      "outputs": [
        {
          "name": "success",
          "type": "bool"
        }
      ],
      "payable": false,
      "stateMutability": "nonpayable",
      "type": "function"
    },
    {
      "constant": false,
      "inputs": [
        {
          "name": "_signature",
          "type": "bytes"
        }
      ],
      "name": "signInvoice",
      "outputs": [
        {
          "name": "success",
          "type": "bool"
        }
      ],
      "payable": false,
      "stateMutability": "nonpayable",
      "type": "function"
    }
  ],
  "bytecode": "0x60806040523480156200001157600080fd5b506040516200112b3803806200112b83398101806040528101908080519060200190929190805190602001909291908051906020019092919080519060200190929190805190602001909291908051906020019092919080518201929190602001805190602001909291908051906020019092919080519060200190929190505050336000806101000a81548173ffffffffffffffffffffffffffffffffffffffff021916908373ffffffffffffffffffffffffffffffffffffffff160217905550896001819055508860028190555087600360006101000a81548173ffffffffffffffffffffffffffffffffffffffff021916908373ffffffffffffffffffffffffffffffffffffffff16021790555086600460006101000a81548173ffffffffffffffffffffffffffffffffffffffff021916908373ffffffffffffffffffffffffffffffffffffffff16021790555085600581905550846006816000191690555083600790805190602001906200018d929190620002dc565b50826008819055508160098190555080600a819055506000600b819055506020604051908101604052806000815250600c9080519060200190620001d392919062000334565b506000600d60006101000a81548160ff02191690836004811115620001f457fe5b02179055507f741f25eb0e928f89e35b6a29951d9cc8e8a81b58ea520e685beebbc67b9ca161308b8a33604051808573ffffffffffffffffffffffffffffffffffffffff1673ffffffffffffffffffffffffffffffffffffffff1681526020018481526020018373ffffffffffffffffffffffffffffffffffffffff1673ffffffffffffffffffffffffffffffffffffffff1681526020018273ffffffffffffffffffffffffffffffffffffffff1673ffffffffffffffffffffffffffffffffffffffff16815260200194505050505060405180910390a1505050505050505050506200040b565b82805482825590600052602060002090810192821562000321579160200282015b8281111562000320578251829060001916905591602001919060010190620002fd565b5b509050620003309190620003bb565b5090565b828054600181600116156101000203166002900490600052602060002090601f016020900481019282601f106200037757805160ff1916838001178555620003a8565b82800160010185558215620003a8579182015b82811115620003a75782518255916020019190600101906200038a565b5b509050620003b79190620003e3565b5090565b620003e091905b80821115620003dc576000816000905550600101620003c2565b5090565b90565b6200040891905b8082111562000404576000816000905550600101620003ea565b5090565b90565b610d10806200041b6000396000f300608060405260043610610062576000357c0100000000000000000000000000000000000000000000000000000000900463ffffffff16806313cebd551461006757806391ffe06414610096578063ac60a6cd14610117578063db23d4f81461014f575b600080fd5b34801561007357600080fd5b5061007c6102e2565b604051808215151515815260200191505060405180910390f35b3480156100a257600080fd5b506100fd600480360381019080803590602001908201803590602001908080601f0160208091040260200160405190810160405280939291908181526020018383808284378201915050505050509192919290505050610440565b604051808215151515815260200191505060405180910390f35b61013560048036038101908080359060200190929190505050610703565b604051808215151515815260200191505060405180910390f35b34801561015b57600080fd5b50610164610962565b604051808e81526020018d81526020018c73ffffffffffffffffffffffffffffffffffffffff1673ffffffffffffffffffffffffffffffffffffffff1681526020018b73ffffffffffffffffffffffffffffffffffffffff1673ffffffffffffffffffffffffffffffffffffffff1681526020018a81526020018960001916600019168152602001806020018881526020018781526020018681526020018581526020018060200184600481111561021857fe5b60ff16815260200183810383528a818151815260200191508051906020019060200280838360005b8381101561025b578082015181840152602081019050610240565b50505050905001838103825285818151815260200191508051906020019080838360005b8381101561029a57808201518184015260208101905061027f565b50505050905090810190601f1680156102c75780820380516001836020036101000a031916815260200191505b509f5050505050505050505050505050505060405180910390f35b6000803073ffffffffffffffffffffffffffffffffffffffff163190506000809054906101000a900473ffffffffffffffffffffffffffffffffffffffff1673ffffffffffffffffffffffffffffffffffffffff166108fc600b549081150290604051600060405180830381858888f19350505050158015610368573d6000803e3d6000fd5b507f9d260e2cddf2e6d1c795f740a9251eac3812ea62b7fb620e3e3385bea2f2bd436000809054906101000a900473ffffffffffffffffffffffffffffffffffffffff16823073ffffffffffffffffffffffffffffffffffffffff1631604051808473ffffffffffffffffffffffffffffffffffffffff1673ffffffffffffffffffffffffffffffffffffffff168152602001838152602001828152602001935050505060405180910390a16002600d60006101000a81548160ff0219169083600481111561043357fe5b0217905550600191505090565b600080600481111561044e57fe5b600d60009054906101000a900460ff16600481111561046957fe5b141515610504576040517f08c379a00000000000000000000000000000000000000000000000000000000081526004018080602001828103825260298152602001807f496e766f696365206d75737420626520696e2053746174652e496e766f69636581526020017f6420746f207369676e000000000000000000000000000000000000000000000081525060400191505060405180910390fd5b600360009054906101000a900473ffffffffffffffffffffffffffffffffffffffff1673ffffffffffffffffffffffffffffffffffffffff163373ffffffffffffffffffffffffffffffffffffffff161415156105ef576040517f08c379a00000000000000000000000000000000000000000000000000000000081526004018080602001828103825260218152602001807f4f6e6c7920637573746f6d65722063616e207369676e20616e20696e766f696381526020017f650000000000000000000000000000000000000000000000000000000000000081525060400191505060405180910390fd5b81600c9080519060200190610605929190610c3f565b506001600d60006101000a81548160ff0219169083600481111561062557fe5b02179055507f2d6cc23832f792617a3d2e4a082026a103d65b4e42ad0bd3ef818e304dee7a673383604051808373ffffffffffffffffffffffffffffffffffffffff1673ffffffffffffffffffffffffffffffffffffffff16815260200180602001828103825283818151815260200191508051906020019080838360005b838110156106bf5780820151818401526020810190506106a4565b50505050905090810190601f1680156106ec5780820380516001836020036101000a031916815260200191505b50935050505060405180910390a160019050919050565b60006001600481111561071257fe5b600d60009054906101000a900460ff16600481111561072d57fe5b1415156107c8576040517f08c379a00000000000000000000000000000000000000000000000000000000081526004018080602001828103825260268152602001807f496e766f696365206d757374206265207369676e6564206265666f726520706181526020017f796d656e742e000000000000000000000000000000000000000000000000000081525060400191505060405180910390fd5b8134141515610865576040517f08c379a00000000000000000000000000000000000000000000000000000000081526004018080602001828103825260218152602001807f6d73672e76616c75652f5f616d6f756e74506169642064697363726570616e6381526020017f790000000000000000000000000000000000000000000000000000000000000081525060400191505060405180910390fd5b600a54821415156108de576040517f08c379a000000000000000000000000000000000000000000000000000000000815260040180806020018281038252601d8152602001807f496e766f696365206d757374206265207061696420696e2066756c6c2e00000081525060200191505060405180910390fd5b81600b819055507f1ce31329373a5bd3ffd31b603ad81593585a9df721cc88b72245c6812f9429733334604051808373ffffffffffffffffffffffffffffffffffffffff1673ffffffffffffffffffffffffffffffffffffffff1681526020018281526020019250505060405180910390a16109586102e2565b5060019050919050565b600080600080600080606060008060008060606000600554421115610aae576000600481111561098e57fe5b600d60009054906101000a900460ff1660048111156109a957fe5b14156109b457600390505b600160048111156109c157fe5b600d60009054906101000a900460ff1660048111156109dc57fe5b14156109e757600490505b600260048111156109f457fe5b600d60009054906101000a900460ff166004811115610a0f57fe5b1415610a2857600d60009054906101000a900460ff1690505b60036004811115610a3557fe5b600d60009054906101000a900460ff166004811115610a5057fe5b1415610a6957600d60009054906101000a900460ff1690505b600480811115610a7557fe5b600d60009054906101000a900460ff166004811115610a9057fe5b1415610aa957600d60009054906101000a900460ff1690505b610ac1565b600d60009054906101000a900460ff1690505b600154600254600360009054906101000a900473ffffffffffffffffffffffffffffffffffffffff16600460009054906101000a900473ffffffffffffffffffffffffffffffffffffffff166005546006546007600854600954600a54600b54600c8c86805480602002602001604051908101604052809291908181526020018280548015610b7357602002820191906000526020600020905b81546000191681526020019060010190808311610b5b575b50505050509650818054600181600116156101000203166002900480601f016020809104026020016040519081016040528092919081815260200182805460018160011615610100020316600290048015610c0f5780601f10610be457610100808354040283529160200191610c0f565b820191906000526020600020905b815481529060010190602001808311610bf257829003601f168201915b505050505091509c509c509c509c509c509c509c509c509c509c509c509c509c50909192939495969798999a9b9c565b828054600181600116156101000203166002900490600052602060002090601f016020900481019282601f10610c8057805160ff1916838001178555610cae565b82800160010185558215610cae579182015b82811115610cad578251825591602001919060010190610c92565b5b509050610cbb9190610cbf565b5090565b610ce191905b80821115610cdd576000816000905550600101610cc5565b5090565b905600a165627a7a723058202b2b3488691e0aa8ec4c9369bd1dc3df98d956b180073e736cb23814fd95ee340029",
  "source": "pragma solidity ^0.4.24;\r\ncontract Invoice{\r\n\r\n    address owner;   \r\n    uint number;\r\n    uint256 issueDate;\r\n    address to;\r\n    address from;\r\n    uint256 dueDate;\r\n    bytes32 reference;\r\n    bytes32[] lines; \r\n    uint subTotal;    \r\n    uint GST;\r\n    uint grandTotal;\r\n    uint amountPaid;\r\n    bytes signature;\r\n    State state;\r\n\r\n    enum State {\r\n        Invoiced,\r\n        Signed,\r\n        Paid,\r\n        Overdue,\r\n        OverdueSigned\r\n    }\r\n\r\n    constructor(\r\n        uint _number,\r\n        uint256 _issueDate,\r\n        address _to,\r\n        address _from, \r\n        uint256 _dueDate, \r\n        bytes32 _ref,  \r\n        bytes32[] _lines, \r\n        uint _subTotal,\r\n        uint _GST, \r\n        uint _grandTotal) \r\n    public{\r\n        owner = msg.sender;\r\n        number = _number;\r\n        issueDate = _issueDate;\r\n        to = _to;\r\n        from = _from;\r\n        dueDate = _dueDate;\r\n        reference = _ref;\r\n        lines = _lines;\r\n        subTotal = _subTotal;\r\n        GST = _GST;\r\n        grandTotal = _grandTotal;\r\n        amountPaid = 0;\r\n        signature = \"\";\r\n        state = State.Invoiced;\r\n\r\n        emit logNewInvoice(address(this), _number, _to, msg.sender);\r\n    }\r\n\r\n    event logNewInvoice(address invoiceAddress, uint invoiceNumber, address to, address from);\r\n    event logInvoiceSigned(address signedBy, bytes signature);\r\n    event logInvoicePayment(address paidBy, uint paymentAmount);\r\n    event logBalanceTransfer(address supplier, uint transferAmount, uint newContractBalance);\r\n\r\n    function getInvoiceDetails() \r\n    public view \r\n    returns (\r\n        uint256 _number,\r\n        uint256 _issueDate, \r\n        address _to,\r\n        address _from, \r\n        uint256 _dueDate,\r\n        bytes32 _ref,\r\n        bytes32[] _lines,\r\n        uint _subTotal,\r\n        uint _GST,\r\n        uint _grandTotal,\r\n        uint _amountPaid,\r\n        bytes _custSig,\r\n        State _state)\r\n    {\r\n        if(block.timestamp > dueDate){\r\n            if(state == State.Invoiced) _state = State.Overdue;\r\n            if(state == State.Signed) _state = State.OverdueSigned;\r\n            if(state == State.Paid) _state = state;\r\n            if(state == State.Overdue) _state = state;\r\n            if(state == State.OverdueSigned) _state = state;\r\n        } else {\r\n            _state = state;\r\n        }\r\n        return(number,issueDate,to,from,dueDate,reference,lines,subTotal,GST,grandTotal,amountPaid,signature,_state);\r\n    }\r\n    \r\n    function payInvoice(uint _amountPaid) public payable returns (bool success) {\r\n        if(state != State.Signed) revert(\"Invoice must be signed before payment.\");\r\n        require(msg.value == _amountPaid, \"msg.value/_amountPaid discrepancy\");\r\n        if(_amountPaid != grandTotal){revert(\"Invoice must be paid in full.\");}\r\n\r\n        else {\r\n            amountPaid = _amountPaid;\r\n            emit logInvoicePayment(msg.sender, msg.value);\r\n            transferInvoiceBalanceToOwner();\r\n            return true;\r\n        }\r\n    }\r\n\r\n    function transferInvoiceBalanceToOwner() public returns (bool success){\r\n        uint balBeforeTransfer = address(this).balance;\r\n        owner.transfer(amountPaid);\r\n        emit logBalanceTransfer(owner, balBeforeTransfer, address(this).balance);\r\n        state = State.Paid;\r\n        return true;\r\n    }\r\n\r\n    function signInvoice(bytes _signature) public returns(bool success){\r\n        if(state != State.Invoiced) revert(\"Invoice must be in State.Invoiced to sign\");\r\n        if(msg.sender != to) revert(\"Only customer can sign an invoice\");\r\n\r\n        signature = _signature;\r\n        state = State.Signed;\r\n        emit logInvoiceSigned(msg.sender, _signature);\r\n        return true;\r\n    }\r\n}",
  "sourcePath": "C:\\Workspaces\\Code\\ethInvoice\\ethAccountingMEAN2\\contracts\\Invoice.sol",
  "compiler": {
    "name": "solc",
    "version": "0.4.24+commit.e67f0147.Emscripten.clang"
  },
  "schemaVersion": "2.0.1",
  "updatedAt": "2018-10-03T00:27:34.628Z"
}